{
  "contractName": "Exchange",
  "abi": [
    {
      "inputs": [
        {
          "internalType": "string",
          "name": "_name",
          "type": "string"
        },
        {
          "internalType": "string",
          "name": "_symbol",
          "type": "string"
        },
        {
          "internalType": "address",
          "name": "_assetA",
          "type": "address"
        },
        {
          "internalType": "address",
          "name": "_assetB",
          "type": "address"
        },
        {
          "internalType": "uint256",
          "name": "_r",
          "type": "uint256"
        }
      ],
      "stateMutability": "nonpayable",
      "type": "constructor"
    },
    {
      "anonymous": false,
      "inputs": [
        {
          "indexed": true,
          "internalType": "address",
          "name": "owner",
          "type": "address"
        },
        {
          "indexed": true,
          "internalType": "address",
          "name": "spender",
          "type": "address"
        },
        {
          "indexed": false,
          "internalType": "uint256",
          "name": "value",
          "type": "uint256"
        }
      ],
      "name": "Approval",
      "type": "event"
    },
    {
      "anonymous": false,
      "inputs": [
        {
          "indexed": true,
          "internalType": "address",
          "name": "previousOwner",
          "type": "address"
        },
        {
          "indexed": true,
          "internalType": "address",
          "name": "newOwner",
          "type": "address"
        }
      ],
      "name": "OwnershipTransferred",
      "type": "event"
    },
    {
      "anonymous": false,
      "inputs": [
        {
          "indexed": true,
          "internalType": "address",
          "name": "from",
          "type": "address"
        },
        {
          "indexed": true,
          "internalType": "address",
          "name": "to",
          "type": "address"
        },
        {
          "indexed": false,
          "internalType": "uint256",
          "name": "value",
          "type": "uint256"
        }
      ],
      "name": "Transfer",
      "type": "event"
    },
    {
      "inputs": [
        {
          "internalType": "address",
          "name": "owner",
          "type": "address"
        },
        {
          "internalType": "address",
          "name": "spender",
          "type": "address"
        }
      ],
      "name": "allowance",
      "outputs": [
        {
          "internalType": "uint256",
          "name": "",
          "type": "uint256"
        }
      ],
      "stateMutability": "view",
      "type": "function"
    },
    {
      "inputs": [
        {
          "internalType": "address",
          "name": "spender",
          "type": "address"
        },
        {
          "internalType": "uint256",
          "name": "amount",
          "type": "uint256"
        }
      ],
      "name": "approve",
      "outputs": [
        {
          "internalType": "bool",
          "name": "",
          "type": "bool"
        }
      ],
      "stateMutability": "nonpayable",
      "type": "function"
    },
    {
      "inputs": [
        {
          "internalType": "address",
          "name": "account",
          "type": "address"
        }
      ],
      "name": "balanceOf",
      "outputs": [
        {
          "internalType": "uint256",
          "name": "",
          "type": "uint256"
        }
      ],
      "stateMutability": "view",
      "type": "function"
    },
    {
      "inputs": [
        {
          "internalType": "uint256",
          "name": "amount",
          "type": "uint256"
        }
      ],
      "name": "burn",
      "outputs": [],
      "stateMutability": "nonpayable",
      "type": "function"
    },
    {
      "inputs": [
        {
          "internalType": "address",
          "name": "account",
          "type": "address"
        },
        {
          "internalType": "uint256",
          "name": "amount",
          "type": "uint256"
        }
      ],
      "name": "burnFrom",
      "outputs": [],
      "stateMutability": "nonpayable",
      "type": "function"
    },
    {
      "inputs": [],
      "name": "decimals",
      "outputs": [
        {
          "internalType": "uint8",
          "name": "",
          "type": "uint8"
        }
      ],
      "stateMutability": "view",
      "type": "function"
    },
    {
      "inputs": [
        {
          "internalType": "address",
          "name": "spender",
          "type": "address"
        },
        {
          "internalType": "uint256",
          "name": "subtractedValue",
          "type": "uint256"
        }
      ],
      "name": "decreaseAllowance",
      "outputs": [
        {
          "internalType": "bool",
          "name": "",
          "type": "bool"
        }
      ],
      "stateMutability": "nonpayable",
      "type": "function"
    },
    {
      "inputs": [
        {
          "internalType": "address",
          "name": "spender",
          "type": "address"
        },
        {
          "internalType": "uint256",
          "name": "addedValue",
          "type": "uint256"
        }
      ],
      "name": "increaseAllowance",
      "outputs": [
        {
          "internalType": "bool",
          "name": "",
          "type": "bool"
        }
      ],
      "stateMutability": "nonpayable",
      "type": "function"
    },
    {
      "inputs": [],
      "name": "name",
      "outputs": [
        {
          "internalType": "string",
          "name": "",
          "type": "string"
        }
      ],
      "stateMutability": "view",
      "type": "function"
    },
    {
      "inputs": [],
      "name": "owner",
      "outputs": [
        {
          "internalType": "address",
          "name": "",
          "type": "address"
        }
      ],
      "stateMutability": "view",
      "type": "function"
    },
    {
      "inputs": [],
      "name": "renounceOwnership",
      "outputs": [],
      "stateMutability": "nonpayable",
      "type": "function"
    },
    {
      "inputs": [],
      "name": "symbol",
      "outputs": [
        {
          "internalType": "string",
          "name": "",
          "type": "string"
        }
      ],
      "stateMutability": "view",
      "type": "function"
    },
    {
      "inputs": [],
      "name": "totalSupply",
      "outputs": [
        {
          "internalType": "uint256",
          "name": "",
          "type": "uint256"
        }
      ],
      "stateMutability": "view",
      "type": "function"
    },
    {
      "inputs": [
        {
          "internalType": "address",
          "name": "recipient",
          "type": "address"
        },
        {
          "internalType": "uint256",
          "name": "amount",
          "type": "uint256"
        }
      ],
      "name": "transfer",
      "outputs": [
        {
          "internalType": "bool",
          "name": "",
          "type": "bool"
        }
      ],
      "stateMutability": "nonpayable",
      "type": "function"
    },
    {
      "inputs": [
        {
          "internalType": "address",
          "name": "sender",
          "type": "address"
        },
        {
          "internalType": "address",
          "name": "recipient",
          "type": "address"
        },
        {
          "internalType": "uint256",
          "name": "amount",
          "type": "uint256"
        }
      ],
      "name": "transferFrom",
      "outputs": [
        {
          "internalType": "bool",
          "name": "",
          "type": "bool"
        }
      ],
      "stateMutability": "nonpayable",
      "type": "function"
    },
    {
      "inputs": [
        {
          "internalType": "address",
          "name": "newOwner",
          "type": "address"
        }
      ],
      "name": "transferOwnership",
      "outputs": [],
      "stateMutability": "nonpayable",
      "type": "function"
    },
    {
      "inputs": [
        {
          "internalType": "uint256",
          "name": "amountA",
          "type": "uint256"
        },
        {
          "internalType": "uint256",
          "name": "amountB",
          "type": "uint256"
        }
      ],
      "name": "mintLiquidity",
      "outputs": [
        {
          "internalType": "uint256",
          "name": "mintedLiquidity",
          "type": "uint256"
        }
      ],
      "stateMutability": "nonpayable",
      "type": "function"
    },
    {
      "inputs": [
        {
          "internalType": "uint256",
          "name": "amountL",
          "type": "uint256"
        }
      ],
      "name": "burnLiquidity",
      "outputs": [
        {
          "internalType": "uint256",
          "name": "totalA",
          "type": "uint256"
        },
        {
          "internalType": "uint256",
          "name": "totalB",
          "type": "uint256"
        }
      ],
      "stateMutability": "nonpayable",
      "type": "function"
    },
    {
      "inputs": [
        {
          "internalType": "uint256",
          "name": "_r",
          "type": "uint256"
        }
      ],
      "name": "setRate",
      "outputs": [],
      "stateMutability": "nonpayable",
      "type": "function"
    }
  ],
  "bytecode": "0x60806040523480156200001157600080fd5b5060405162002f4e38038062002f4e833981810160405260a08110156200003757600080fd5b81019080805160405193929190846401000000008211156200005857600080fd5b838201915060208201858111156200006f57600080fd5b82518660018202830111640100000000821117156200008d57600080fd5b8083526020830192505050908051906020019080838360005b83811015620000c3578082015181840152602081019050620000a6565b50505050905090810190601f168015620000f15780820380516001836020036101000a031916815260200191505b50604052602001805160405193929190846401000000008211156200011557600080fd5b838201915060208201858111156200012c57600080fd5b82518660018202830111640100000000821117156200014a57600080fd5b8083526020830192505050908051906020019080838360005b838110156200018057808201518184015260208101905062000163565b50505050905090810190601f168015620001ae5780820380516001836020036101000a031916815260200191505b50604052602001805190602001909291908051906020019092919080519060200190929190505050848481818160039080519060200190620001f292919062000379565b5080600490805190602001906200020b92919062000379565b506012600560006101000a81548160ff021916908360ff1602179055505050505060006200023e6200037160201b60201c565b905080600560016101000a81548173ffffffffffffffffffffffffffffffffffffffff021916908373ffffffffffffffffffffffffffffffffffffffff1602179055508073ffffffffffffffffffffffffffffffffffffffff16600073ffffffffffffffffffffffffffffffffffffffff167f8be0079c531659141344cd1fd0a4f28419497f9722a3daafe3b4186f6b6457e060405160405180910390a35082600760006101000a81548173ffffffffffffffffffffffffffffffffffffffff021916908373ffffffffffffffffffffffffffffffffffffffff16021790555081600860006101000a81548173ffffffffffffffffffffffffffffffffffffffff021916908373ffffffffffffffffffffffffffffffffffffffff1602179055508060068190555050505050506200041f565b600033905090565b828054600181600116156101000203166002900490600052602060002090601f016020900481019282601f10620003bc57805160ff1916838001178555620003ed565b82800160010185558215620003ed579182015b82811115620003ec578251825591602001919060010190620003cf565b5b509050620003fc919062000400565b5090565b5b808211156200041b57600081600090555060010162000401565b5090565b612b1f806200042f6000396000f3fe608060405234801561001057600080fd5b50600436106101215760003560e01c80636c500a01116100ad57806395d89b411161007157806395d89b4114610509578063a457c2d71461058c578063a9059cbb146105f0578063dd62ed3e14610654578063f2fde38b146106cc57610121565b80636c500a01146103d957806370a0823114610425578063715018a61461047d57806379cc6790146104875780638da5cb5b146104d557610121565b8063265744f1116100f4578063265744f1146102af578063313ce567146102f857806334fcf43714610319578063395093511461034757806342966c68146103ab57610121565b806306fdde0314610126578063095ea7b3146101a957806318160ddd1461020d57806323b872dd1461022b575b600080fd5b61012e610710565b6040518080602001828103825283818151815260200191508051906020019080838360005b8381101561016e578082015181840152602081019050610153565b50505050905090810190601f16801561019b5780820380516001836020036101000a031916815260200191505b509250505060405180910390f35b6101f5600480360360408110156101bf57600080fd5b81019080803573ffffffffffffffffffffffffffffffffffffffff169060200190929190803590602001909291905050506107b2565b60405180821515815260200191505060405180910390f35b6102156107d0565b6040518082815260200191505060405180910390f35b6102976004803603606081101561024157600080fd5b81019080803573ffffffffffffffffffffffffffffffffffffffff169060200190929190803573ffffffffffffffffffffffffffffffffffffffff169060200190929190803590602001909291905050506107da565b60405180821515815260200191505060405180910390f35b6102db600480360360208110156102c557600080fd5b81019080803590602001909291905050506108b3565b604051808381526020018281526020019250505060405180910390f35b610300610bcb565b604051808260ff16815260200191505060405180910390f35b6103456004803603602081101561032f57600080fd5b8101908080359060200190929190505050610be2565b005b6103936004803603604081101561035d57600080fd5b81019080803573ffffffffffffffffffffffffffffffffffffffff16906020019092919080359060200190929190505050610cb6565b60405180821515815260200191505060405180910390f35b6103d7600480360360208110156103c157600080fd5b8101908080359060200190929190505050610d69565b005b61040f600480360360408110156103ef57600080fd5b810190808035906020019092919080359060200190929190505050610d7d565b6040518082815260200191505060405180910390f35b6104676004803603602081101561043b57600080fd5b81019080803573ffffffffffffffffffffffffffffffffffffffff16906020019092919050505061119b565b6040518082815260200191505060405180910390f35b6104856111e3565b005b6104d36004803603604081101561049d57600080fd5b81019080803573ffffffffffffffffffffffffffffffffffffffff1690602001909291908035906020019092919050505061136e565b005b6104dd6113d0565b604051808273ffffffffffffffffffffffffffffffffffffffff16815260200191505060405180910390f35b6105116113fa565b6040518080602001828103825283818151815260200191508051906020019080838360005b83811015610551578082015181840152602081019050610536565b50505050905090810190601f16801561057e5780820380516001836020036101000a031916815260200191505b509250505060405180910390f35b6105d8600480360360408110156105a257600080fd5b81019080803573ffffffffffffffffffffffffffffffffffffffff1690602001909291908035906020019092919050505061149c565b60405180821515815260200191505060405180910390f35b61063c6004803603604081101561060657600080fd5b81019080803573ffffffffffffffffffffffffffffffffffffffff16906020019092919080359060200190929190505050611569565b60405180821515815260200191505060405180910390f35b6106b66004803603604081101561066a57600080fd5b81019080803573ffffffffffffffffffffffffffffffffffffffff169060200190929190803573ffffffffffffffffffffffffffffffffffffffff169060200190929190505050611587565b6040518082815260200191505060405180910390f35b61070e600480360360208110156106e257600080fd5b81019080803573ffffffffffffffffffffffffffffffffffffffff16906020019092919050505061160e565b005b606060038054600181600116156101000203166002900480601f0160208091040260200160405190810160405280929190818152602001828054600181600116156101000203166002900480156107a85780601f1061077d576101008083540402835291602001916107a8565b820191906000526020600020905b81548152906001019060200180831161078b57829003601f168201915b5050505050905090565b60006107c66107bf61181e565b8484611826565b6001905092915050565b6000600254905090565b60006107e7848484611a1d565b6108a8846107f361181e565b6108a3856040518060600160405280602881526020016129e560289139600160008b73ffffffffffffffffffffffffffffffffffffffff1673ffffffffffffffffffffffffffffffffffffffff168152602001908152602001600020600061085961181e565b73ffffffffffffffffffffffffffffffffffffffff1673ffffffffffffffffffffffffffffffffffffffff16815260200190815260200160002054611cde9092919063ffffffff16565b611826565b600190509392505050565b600080826108c13330611587565b1015610935576040517f08c379a000000000000000000000000000000000000000000000000000000000815260040180806020018281038252601c8152602001807f4e65656420746f207065726d697420746f6b656e206275726e696e670000000081525060200191505060405180910390fd5b6000600760009054906101000a900473ffffffffffffffffffffffffffffffffffffffff1673ffffffffffffffffffffffffffffffffffffffff166370a08231306040518263ffffffff1660e01b8152600401808273ffffffffffffffffffffffffffffffffffffffff16815260200191505060206040518083038186803b1580156109c057600080fd5b505afa1580156109d4573d6000803e3d6000fd5b505050506040513d60208110156109ea57600080fd5b810190808051906020019092919050505090506000600860009054906101000a900473ffffffffffffffffffffffffffffffffffffffff1673ffffffffffffffffffffffffffffffffffffffff166370a08231306040518263ffffffff1660e01b8152600401808273ffffffffffffffffffffffffffffffffffffffff16815260200191505060206040518083038186803b158015610a8857600080fd5b505afa158015610a9c573d6000803e3d6000fd5b505050506040513d6020811015610ab257600080fd5b810190808051906020019092919050505090506000610acf6107d0565b9050610af6610ae78288611d9e90919063ffffffff16565b84611de890919063ffffffff16565b9450610b1d610b0e8288611d9e90919063ffffffff16565b83611de890919063ffffffff16565b9350610b6c3386600760009054906101000a900473ffffffffffffffffffffffffffffffffffffffff1673ffffffffffffffffffffffffffffffffffffffff16611e6e9092919063ffffffff16565b610bb93385600860009054906101000a900473ffffffffffffffffffffffffffffffffffffffff1673ffffffffffffffffffffffffffffffffffffffff16611e6e9092919063ffffffff16565b610bc3338761136e565b505050915091565b6000600560009054906101000a900460ff16905090565b610bea61181e565b73ffffffffffffffffffffffffffffffffffffffff16600560019054906101000a900473ffffffffffffffffffffffffffffffffffffffff1673ffffffffffffffffffffffffffffffffffffffff1614610cac576040517f08c379a00000000000000000000000000000000000000000000000000000000081526004018080602001828103825260208152602001807f4f776e61626c653a2063616c6c6572206973206e6f7420746865206f776e657281525060200191505060405180910390fd5b8060068190555050565b6000610d5f610cc361181e565b84610d5a8560016000610cd461181e565b73ffffffffffffffffffffffffffffffffffffffff1673ffffffffffffffffffffffffffffffffffffffff16815260200190815260200160002060008973ffffffffffffffffffffffffffffffffffffffff1673ffffffffffffffffffffffffffffffffffffffff16815260200190815260200160002054611f1090919063ffffffff16565b611826565b6001905092915050565b610d7a610d7461181e565b82611f98565b50565b600081600654028314610df8576040517f08c379a000000000000000000000000000000000000000000000000000000000815260040180806020018281038252600d8152602001807f57726f6e6720616d6f756e74730000000000000000000000000000000000000081525060200191505060405180910390fd5b82600760009054906101000a900473ffffffffffffffffffffffffffffffffffffffff1673ffffffffffffffffffffffffffffffffffffffff1663dd62ed3e33306040518363ffffffff1660e01b8152600401808373ffffffffffffffffffffffffffffffffffffffff1681526020018273ffffffffffffffffffffffffffffffffffffffff1681526020019250505060206040518083038186803b158015610ea057600080fd5b505afa158015610eb4573d6000803e3d6000fd5b505050506040513d6020811015610eca57600080fd5b81019080805190602001909291905050501015610ee657600080fd5b81600860009054906101000a900473ffffffffffffffffffffffffffffffffffffffff1673ffffffffffffffffffffffffffffffffffffffff1663dd62ed3e33306040518363ffffffff1660e01b8152600401808373ffffffffffffffffffffffffffffffffffffffff1681526020018273ffffffffffffffffffffffffffffffffffffffff1681526020019250505060206040518083038186803b158015610f8e57600080fd5b505afa158015610fa2573d6000803e3d6000fd5b505050506040513d6020811015610fb857600080fd5b81019080805190602001909291905050501015610fd457600080fd5b6000610fde6107d0565b9050600081141561100b57611004610fff8486611de890919063ffffffff16565b61215c565b91506110ec565b6000600760009054906101000a900473ffffffffffffffffffffffffffffffffffffffff1673ffffffffffffffffffffffffffffffffffffffff166370a08231306040518263ffffffff1660e01b8152600401808273ffffffffffffffffffffffffffffffffffffffff16815260200191505060206040518083038186803b15801561109657600080fd5b505afa1580156110aa573d6000803e3d6000fd5b505050506040513d60208110156110c057600080fd5b81019080805190602001909291905050509050816110e78287611d9e90919063ffffffff16565b029250505b61113b333086600760009054906101000a900473ffffffffffffffffffffffffffffffffffffffff1673ffffffffffffffffffffffffffffffffffffffff166121be909392919063ffffffff16565b61118a333085600860009054906101000a900473ffffffffffffffffffffffffffffffffffffffff1673ffffffffffffffffffffffffffffffffffffffff166121be909392919063ffffffff16565b611194338361227f565b5092915050565b60008060008373ffffffffffffffffffffffffffffffffffffffff1673ffffffffffffffffffffffffffffffffffffffff168152602001908152602001600020549050919050565b6111eb61181e565b73ffffffffffffffffffffffffffffffffffffffff16600560019054906101000a900473ffffffffffffffffffffffffffffffffffffffff1673ffffffffffffffffffffffffffffffffffffffff16146112ad576040517f08c379a00000000000000000000000000000000000000000000000000000000081526004018080602001828103825260208152602001807f4f776e61626c653a2063616c6c6572206973206e6f7420746865206f776e657281525060200191505060405180910390fd5b600073ffffffffffffffffffffffffffffffffffffffff16600560019054906101000a900473ffffffffffffffffffffffffffffffffffffffff1673ffffffffffffffffffffffffffffffffffffffff167f8be0079c531659141344cd1fd0a4f28419497f9722a3daafe3b4186f6b6457e060405160405180910390a36000600560016101000a81548173ffffffffffffffffffffffffffffffffffffffff021916908373ffffffffffffffffffffffffffffffffffffffff160217905550565b60006113ad82604051806060016040528060248152602001612a0d6024913961139e8661139961181e565b611587565b611cde9092919063ffffffff16565b90506113c1836113bb61181e565b83611826565b6113cb8383611f98565b505050565b6000600560019054906101000a900473ffffffffffffffffffffffffffffffffffffffff16905090565b606060048054600181600116156101000203166002900480601f0160208091040260200160405190810160405280929190818152602001828054600181600116156101000203166002900480156114925780601f1061146757610100808354040283529160200191611492565b820191906000526020600020905b81548152906001019060200180831161147557829003601f168201915b5050505050905090565b600061155f6114a961181e565b8461155a85604051806060016040528060258152602001612ac560259139600160006114d361181e565b73ffffffffffffffffffffffffffffffffffffffff1673ffffffffffffffffffffffffffffffffffffffff16815260200190815260200160002060008a73ffffffffffffffffffffffffffffffffffffffff1673ffffffffffffffffffffffffffffffffffffffff16815260200190815260200160002054611cde9092919063ffffffff16565b611826565b6001905092915050565b600061157d61157661181e565b8484611a1d565b6001905092915050565b6000600160008473ffffffffffffffffffffffffffffffffffffffff1673ffffffffffffffffffffffffffffffffffffffff16815260200190815260200160002060008373ffffffffffffffffffffffffffffffffffffffff1673ffffffffffffffffffffffffffffffffffffffff16815260200190815260200160002054905092915050565b61161661181e565b73ffffffffffffffffffffffffffffffffffffffff16600560019054906101000a900473ffffffffffffffffffffffffffffffffffffffff1673ffffffffffffffffffffffffffffffffffffffff16146116d8576040517f08c379a00000000000000000000000000000000000000000000000000000000081526004018080602001828103825260208152602001807f4f776e61626c653a2063616c6c6572206973206e6f7420746865206f776e657281525060200191505060405180910390fd5b600073ffffffffffffffffffffffffffffffffffffffff168173ffffffffffffffffffffffffffffffffffffffff16141561175e576040517f08c379a00000000000000000000000000000000000000000000000000000000081526004018080602001828103825260268152602001806129306026913960400191505060405180910390fd5b8073ffffffffffffffffffffffffffffffffffffffff16600560019054906101000a900473ffffffffffffffffffffffffffffffffffffffff1673ffffffffffffffffffffffffffffffffffffffff167f8be0079c531659141344cd1fd0a4f28419497f9722a3daafe3b4186f6b6457e060405160405180910390a380600560016101000a81548173ffffffffffffffffffffffffffffffffffffffff021916908373ffffffffffffffffffffffffffffffffffffffff16021790555050565b600033905090565b600073ffffffffffffffffffffffffffffffffffffffff168373ffffffffffffffffffffffffffffffffffffffff1614156118ac576040517f08c379a0000000000000000000000000000000000000000000000000000000008152600401808060200182810382526024815260200180612a776024913960400191505060405180910390fd5b600073ffffffffffffffffffffffffffffffffffffffff168273ffffffffffffffffffffffffffffffffffffffff161415611932576040517f08c379a00000000000000000000000000000000000000000000000000000000081526004018080602001828103825260228152602001806129566022913960400191505060405180910390fd5b80600160008573ffffffffffffffffffffffffffffffffffffffff1673ffffffffffffffffffffffffffffffffffffffff16815260200190815260200160002060008473ffffffffffffffffffffffffffffffffffffffff1673ffffffffffffffffffffffffffffffffffffffff168152602001908152602001600020819055508173ffffffffffffffffffffffffffffffffffffffff168373ffffffffffffffffffffffffffffffffffffffff167f8c5be1e5ebec7d5bd14f71427d1e84f3dd0314c0f7b2291e5b200ac8c7c3b925836040518082815260200191505060405180910390a3505050565b600073ffffffffffffffffffffffffffffffffffffffff168373ffffffffffffffffffffffffffffffffffffffff161415611aa3576040517f08c379a0000000000000000000000000000000000000000000000000000000008152600401808060200182810382526025815260200180612a526025913960400191505060405180910390fd5b600073ffffffffffffffffffffffffffffffffffffffff168273ffffffffffffffffffffffffffffffffffffffff161415611b29576040517f08c379a00000000000000000000000000000000000000000000000000000000081526004018080602001828103825260238152602001806128eb6023913960400191505060405180910390fd5b611b34838383612446565b611b9f81604051806060016040528060268152602001612978602691396000808773ffffffffffffffffffffffffffffffffffffffff1673ffffffffffffffffffffffffffffffffffffffff16815260200190815260200160002054611cde9092919063ffffffff16565b6000808573ffffffffffffffffffffffffffffffffffffffff1673ffffffffffffffffffffffffffffffffffffffff16815260200190815260200160002081905550611c32816000808573ffffffffffffffffffffffffffffffffffffffff1673ffffffffffffffffffffffffffffffffffffffff16815260200190815260200160002054611f1090919063ffffffff16565b6000808473ffffffffffffffffffffffffffffffffffffffff1673ffffffffffffffffffffffffffffffffffffffff168152602001908152602001600020819055508173ffffffffffffffffffffffffffffffffffffffff168373ffffffffffffffffffffffffffffffffffffffff167fddf252ad1be2c89b69c2b068fc378daa952ba7f163c4a11628f55a4df523b3ef836040518082815260200191505060405180910390a3505050565b6000838311158290611d8b576040517f08c379a00000000000000000000000000000000000000000000000000000000081526004018080602001828103825283818151815260200191508051906020019080838360005b83811015611d50578082015181840152602081019050611d35565b50505050905090810190601f168015611d7d5780820380516001836020036101000a031916815260200191505b509250505060405180910390fd5b5060008385039050809150509392505050565b6000611de083836040518060400160405280601a81526020017f536166654d6174683a206469766973696f6e206279207a65726f00000000000081525061244b565b905092915050565b600080831415611dfb5760009050611e68565b6000828402905082848281611e0c57fe5b0414611e63576040517f08c379a00000000000000000000000000000000000000000000000000000000081526004018080602001828103825260218152602001806129c46021913960400191505060405180910390fd5b809150505b92915050565b611f0b8363a9059cbb60e01b8484604051602401808373ffffffffffffffffffffffffffffffffffffffff16815260200182815260200192505050604051602081830303815290604052907bffffffffffffffffffffffffffffffffffffffffffffffffffffffff19166020820180517bffffffffffffffffffffffffffffffffffffffffffffffffffffffff8381831617835250505050612511565b505050565b600080828401905083811015611f8e576040517f08c379a000000000000000000000000000000000000000000000000000000000815260040180806020018281038252601b8152602001807f536166654d6174683a206164646974696f6e206f766572666c6f77000000000081525060200191505060405180910390fd5b8091505092915050565b600073ffffffffffffffffffffffffffffffffffffffff168273ffffffffffffffffffffffffffffffffffffffff16141561201e576040517f08c379a0000000000000000000000000000000000000000000000000000000008152600401808060200182810382526021815260200180612a316021913960400191505060405180910390fd5b61202a82600083612446565b6120958160405180606001604052806022815260200161290e602291396000808673ffffffffffffffffffffffffffffffffffffffff1673ffffffffffffffffffffffffffffffffffffffff16815260200190815260200160002054611cde9092919063ffffffff16565b6000808473ffffffffffffffffffffffffffffffffffffffff1673ffffffffffffffffffffffffffffffffffffffff168152602001908152602001600020819055506120ec8160025461260090919063ffffffff16565b600281905550600073ffffffffffffffffffffffffffffffffffffffff168273ffffffffffffffffffffffffffffffffffffffff167fddf252ad1be2c89b69c2b068fc378daa952ba7f163c4a11628f55a4df523b3ef836040518082815260200191505060405180910390a35050565b600060038211156121ab57819050600060016002848161217857fe5b040190505b818110156121a55780915060028182858161219457fe5b04018161219d57fe5b04905061217d565b506121b9565b600082146121b857600190505b5b919050565b612279846323b872dd60e01b858585604051602401808473ffffffffffffffffffffffffffffffffffffffff1681526020018373ffffffffffffffffffffffffffffffffffffffff1681526020018281526020019350505050604051602081830303815290604052907bffffffffffffffffffffffffffffffffffffffffffffffffffffffff19166020820180517bffffffffffffffffffffffffffffffffffffffffffffffffffffffff8381831617835250505050612511565b50505050565b600073ffffffffffffffffffffffffffffffffffffffff168273ffffffffffffffffffffffffffffffffffffffff161415612322576040517f08c379a000000000000000000000000000000000000000000000000000000000815260040180806020018281038252601f8152602001807f45524332303a206d696e7420746f20746865207a65726f20616464726573730081525060200191505060405180910390fd5b61232e60008383612446565b61234381600254611f1090919063ffffffff16565b60028190555061239a816000808573ffffffffffffffffffffffffffffffffffffffff1673ffffffffffffffffffffffffffffffffffffffff16815260200190815260200160002054611f1090919063ffffffff16565b6000808473ffffffffffffffffffffffffffffffffffffffff1673ffffffffffffffffffffffffffffffffffffffff168152602001908152602001600020819055508173ffffffffffffffffffffffffffffffffffffffff16600073ffffffffffffffffffffffffffffffffffffffff167fddf252ad1be2c89b69c2b068fc378daa952ba7f163c4a11628f55a4df523b3ef836040518082815260200191505060405180910390a35050565b505050565b600080831182906124f7576040517f08c379a00000000000000000000000000000000000000000000000000000000081526004018080602001828103825283818151815260200191508051906020019080838360005b838110156124bc5780820151818401526020810190506124a1565b50505050905090810190601f1680156124e95780820380516001836020036101000a031916815260200191505b509250505060405180910390fd5b50600083858161250357fe5b049050809150509392505050565b6060612573826040518060400160405280602081526020017f5361666545524332303a206c6f772d6c6576656c2063616c6c206661696c65648152508573ffffffffffffffffffffffffffffffffffffffff1661264a9092919063ffffffff16565b90506000815111156125fb5780806020019051602081101561259457600080fd5b81019080805190602001909291905050506125fa576040517f08c379a000000000000000000000000000000000000000000000000000000000815260040180806020018281038252602a815260200180612a9b602a913960400191505060405180910390fd5b5b505050565b600061264283836040518060400160405280601e81526020017f536166654d6174683a207375627472616374696f6e206f766572666c6f770000815250611cde565b905092915050565b60606126598484600085612662565b90509392505050565b6060824710156126bd576040517f08c379a000000000000000000000000000000000000000000000000000000000815260040180806020018281038252602681526020018061299e6026913960400191505060405180910390fd5b6126c68561280b565b612738576040517f08c379a000000000000000000000000000000000000000000000000000000000815260040180806020018281038252601d8152602001807f416464726573733a2063616c6c20746f206e6f6e2d636f6e747261637400000081525060200191505060405180910390fd5b600060608673ffffffffffffffffffffffffffffffffffffffff1685876040518082805190602001908083835b602083106127885780518252602082019150602081019050602083039250612765565b6001836020036101000a03801982511681845116808217855250505050505090500191505060006040518083038185875af1925050503d80600081146127ea576040519150601f19603f3d011682016040523d82523d6000602084013e6127ef565b606091505b50915091506127ff82828661281e565b92505050949350505050565b600080823b905060008111915050919050565b6060831561282e578290506128e3565b6000835111156128415782518084602001fd5b816040517f08c379a00000000000000000000000000000000000000000000000000000000081526004018080602001828103825283818151815260200191508051906020019080838360005b838110156128a857808201518184015260208101905061288d565b50505050905090810190601f1680156128d55780820380516001836020036101000a031916815260200191505b509250505060405180910390fd5b939250505056fe45524332303a207472616e7366657220746f20746865207a65726f206164647265737345524332303a206275726e20616d6f756e7420657863656564732062616c616e63654f776e61626c653a206e6577206f776e657220697320746865207a65726f206164647265737345524332303a20617070726f766520746f20746865207a65726f206164647265737345524332303a207472616e7366657220616d6f756e7420657863656564732062616c616e6365416464726573733a20696e73756666696369656e742062616c616e636520666f722063616c6c536166654d6174683a206d756c7469706c69636174696f6e206f766572666c6f7745524332303a207472616e7366657220616d6f756e74206578636565647320616c6c6f77616e636545524332303a206275726e20616d6f756e74206578636565647320616c6c6f77616e636545524332303a206275726e2066726f6d20746865207a65726f206164647265737345524332303a207472616e736665722066726f6d20746865207a65726f206164647265737345524332303a20617070726f76652066726f6d20746865207a65726f20616464726573735361666545524332303a204552433230206f7065726174696f6e20646964206e6f74207375636365656445524332303a2064656372656173656420616c6c6f77616e63652062656c6f77207a65726fa264697066735822122022f11f6bf2f7ed2635e8423dcf62a96ad6fb8f24278fe4fb0b6d6eb21d2af66264736f6c634300060c0033",
  "immutableReferences": {},
  "source": "pragma solidity ^0.6;\n\nimport \"openzeppelin-solidity/contracts/access/Ownable.sol\";\nimport \"openzeppelin-solidity/contracts/math/SafeMath.sol\";\nimport \"openzeppelin-solidity/contracts/token/ERC20/SafeERC20.sol\";\nimport \"./libraries/Math.sol\";\nimport \"./ExchangeERC20.sol\";\n\ncontract Exchange is ExchangeERC20, Ownable {\n    using SafeMath for uint;\n    using SafeERC20 for IERC20;\n\n    uint256 r;\n    IERC20 assetA;\n    IERC20 assetB;\n\n    constructor(string memory _name, string memory _symbol, address _assetA, address _assetB, uint256 _r) \n    ExchangeERC20(_name, _symbol) public {        \n        assetA = IERC20(_assetA);\n        assetB = IERC20(_assetB);\n        r = _r;\n    }\n\n    function mintLiquidity(uint256 amountA, uint256 amountB) public returns(uint mintedLiquidity) {\n        require(amountA == (r * amountB), \"Wrong amounts\");\n        require(assetA.allowance(msg.sender, address(this)) >= amountA);\n        require(assetB.allowance(msg.sender, address(this)) >= amountB);\n\n        uint totalLiquidity = totalSupply();\n\n        if(totalLiquidity == 0) {\n            mintedLiquidity = Math.sqrt(amountA.mul(amountB));\n        } else {\n            uint reserveA = assetA.balanceOf(address(this));\n            mintedLiquidity = amountA.div(reserveA) * totalLiquidity;\n        }\n\n        assetA.safeTransferFrom(msg.sender, address(this), amountA);\n        assetB.safeTransferFrom(msg.sender, address(this), amountB);\n\n        _mint(msg.sender, mintedLiquidity);\n    }\n\n    function burnLiquidity(uint256 amountL) public returns(uint totalA, uint totalB) {\n        require(allowance(msg.sender, address(this)) >= amountL, \"Need to permit token burning\");\n\n        uint reserveA = assetA.balanceOf(address(this));\n        uint reserveB = assetB.balanceOf(address(this));\n        uint totalLiquidity = totalSupply();\n\n        totalA = reserveA.mul(amountL.div(totalLiquidity));\n        totalB = reserveB.mul(amountL.div(totalLiquidity));\n\n        assetA.safeTransfer(msg.sender, totalA);\n        assetB.safeTransfer(msg.sender, totalB);\n\n        burnFrom(msg.sender, amountL);\n    }\n\n    function setRate(uint256 _r) public onlyOwner() {\n        r = _r;\n    }\n}",
  "sourcePath": "/Users/antodp/develop/gitcoin/fuse-studio/contracts/exchange/contracts/Exchange.sol",
  "compiler": {
    "name": "solc",
    "version": "0.6.12+commit.27d51765.Emscripten.clang"
  },
  "schemaVersion": "3.2.5",
  "updatedAt": "2021-01-09T02:46:48.680Z",
  "devdoc": {
    "kind": "dev",
    "methods": {
      "allowance(address,address)": {
        "details": "See {IERC20-allowance}."
      },
      "approve(address,uint256)": {
        "details": "See {IERC20-approve}. Requirements: - `spender` cannot be the zero address."
      },
      "balanceOf(address)": {
        "details": "See {IERC20-balanceOf}."
      },
      "burn(uint256)": {
        "details": "Destroys `amount` tokens from the caller. See {ERC20-_burn}."
      },
      "burnFrom(address,uint256)": {
        "details": "Destroys `amount` tokens from `account`, deducting from the caller's allowance. See {ERC20-_burn} and {ERC20-allowance}. Requirements: - the caller must have allowance for ``accounts``'s tokens of at least `amount`."
      },
      "decimals()": {
        "details": "Returns the number of decimals used to get its user representation. For example, if `decimals` equals `2`, a balance of `505` tokens should be displayed to a user as `5,05` (`505 / 10 ** 2`). Tokens usually opt for a value of 18, imitating the relationship between Ether and Wei. This is the value {ERC20} uses, unless {_setupDecimals} is called. NOTE: This information is only used for _display_ purposes: it in no way affects any of the arithmetic of the contract, including {IERC20-balanceOf} and {IERC20-transfer}."
      },
      "decreaseAllowance(address,uint256)": {
        "details": "Atomically decreases the allowance granted to `spender` by the caller. This is an alternative to {approve} that can be used as a mitigation for problems described in {IERC20-approve}. Emits an {Approval} event indicating the updated allowance. Requirements: - `spender` cannot be the zero address. - `spender` must have allowance for the caller of at least `subtractedValue`."
      },
      "increaseAllowance(address,uint256)": {
        "details": "Atomically increases the allowance granted to `spender` by the caller. This is an alternative to {approve} that can be used as a mitigation for problems described in {IERC20-approve}. Emits an {Approval} event indicating the updated allowance. Requirements: - `spender` cannot be the zero address."
      },
      "name()": {
        "details": "Returns the name of the token."
      },
      "owner()": {
        "details": "Returns the address of the current owner."
      },
      "renounceOwnership()": {
        "details": "Leaves the contract without owner. It will not be possible to call `onlyOwner` functions anymore. Can only be called by the current owner. NOTE: Renouncing ownership will leave the contract without an owner, thereby removing any functionality that is only available to the owner."
      },
      "symbol()": {
        "details": "Returns the symbol of the token, usually a shorter version of the name."
      },
      "totalSupply()": {
        "details": "See {IERC20-totalSupply}."
      },
      "transfer(address,uint256)": {
        "details": "See {IERC20-transfer}. Requirements: - `recipient` cannot be the zero address. - the caller must have a balance of at least `amount`."
      },
      "transferFrom(address,address,uint256)": {
        "details": "See {IERC20-transferFrom}. Emits an {Approval} event indicating the updated allowance. This is not required by the EIP. See the note at the beginning of {ERC20}. Requirements: - `sender` and `recipient` cannot be the zero address. - `sender` must have a balance of at least `amount`. - the caller must have allowance for ``sender``'s tokens of at least `amount`."
      },
      "transferOwnership(address)": {
        "details": "Transfers ownership of the contract to a new account (`newOwner`). Can only be called by the current owner."
      }
    },
    "version": 1
  },
  "userdoc": {
    "kind": "user",
    "methods": {},
    "version": 1
  }
}