{
  "contractName": "Exchange",
  "abi": [
    {
      "inputs": [
        {
          "internalType": "string",
          "name": "_name",
          "type": "string"
        },
        {
          "internalType": "string",
          "name": "_symbol",
          "type": "string"
        },
        {
          "internalType": "address",
          "name": "_assetA",
          "type": "address"
        },
        {
          "internalType": "address",
          "name": "_assetB",
          "type": "address"
        },
        {
          "internalType": "uint256",
          "name": "_a",
          "type": "uint256"
        },
        {
          "internalType": "uint256",
          "name": "_b",
          "type": "uint256"
        }
      ],
      "stateMutability": "nonpayable",
      "type": "constructor"
    },
    {
      "anonymous": false,
      "inputs": [
        {
          "indexed": true,
          "internalType": "address",
          "name": "owner",
          "type": "address"
        },
        {
          "indexed": true,
          "internalType": "address",
          "name": "spender",
          "type": "address"
        },
        {
          "indexed": false,
          "internalType": "uint256",
          "name": "value",
          "type": "uint256"
        }
      ],
      "name": "Approval",
      "type": "event"
    },
    {
      "anonymous": false,
      "inputs": [
        {
          "indexed": true,
          "internalType": "address",
          "name": "previousOwner",
          "type": "address"
        },
        {
          "indexed": true,
          "internalType": "address",
          "name": "newOwner",
          "type": "address"
        }
      ],
      "name": "OwnershipTransferred",
      "type": "event"
    },
    {
      "anonymous": false,
      "inputs": [
        {
          "indexed": true,
          "internalType": "address",
          "name": "from",
          "type": "address"
        },
        {
          "indexed": true,
          "internalType": "address",
          "name": "to",
          "type": "address"
        },
        {
          "indexed": false,
          "internalType": "uint256",
          "name": "value",
          "type": "uint256"
        }
      ],
      "name": "Transfer",
      "type": "event"
    },
    {
      "inputs": [
        {
          "internalType": "address",
          "name": "owner",
          "type": "address"
        },
        {
          "internalType": "address",
          "name": "spender",
          "type": "address"
        }
      ],
      "name": "allowance",
      "outputs": [
        {
          "internalType": "uint256",
          "name": "",
          "type": "uint256"
        }
      ],
      "stateMutability": "view",
      "type": "function"
    },
    {
      "inputs": [
        {
          "internalType": "address",
          "name": "spender",
          "type": "address"
        },
        {
          "internalType": "uint256",
          "name": "amount",
          "type": "uint256"
        }
      ],
      "name": "approve",
      "outputs": [
        {
          "internalType": "bool",
          "name": "",
          "type": "bool"
        }
      ],
      "stateMutability": "nonpayable",
      "type": "function"
    },
    {
      "inputs": [],
      "name": "assetA",
      "outputs": [
        {
          "internalType": "address",
          "name": "",
          "type": "address"
        }
      ],
      "stateMutability": "view",
      "type": "function"
    },
    {
      "inputs": [],
      "name": "assetB",
      "outputs": [
        {
          "internalType": "address",
          "name": "",
          "type": "address"
        }
      ],
      "stateMutability": "view",
      "type": "function"
    },
    {
      "inputs": [
        {
          "internalType": "address",
          "name": "account",
          "type": "address"
        }
      ],
      "name": "balanceOf",
      "outputs": [
        {
          "internalType": "uint256",
          "name": "",
          "type": "uint256"
        }
      ],
      "stateMutability": "view",
      "type": "function"
    },
    {
      "inputs": [
        {
          "internalType": "uint256",
          "name": "amount",
          "type": "uint256"
        }
      ],
      "name": "burn",
      "outputs": [],
      "stateMutability": "nonpayable",
      "type": "function"
    },
    {
      "inputs": [
        {
          "internalType": "address",
          "name": "account",
          "type": "address"
        },
        {
          "internalType": "uint256",
          "name": "amount",
          "type": "uint256"
        }
      ],
      "name": "burnFrom",
      "outputs": [],
      "stateMutability": "nonpayable",
      "type": "function"
    },
    {
      "inputs": [],
      "name": "decimals",
      "outputs": [
        {
          "internalType": "uint8",
          "name": "",
          "type": "uint8"
        }
      ],
      "stateMutability": "view",
      "type": "function"
    },
    {
      "inputs": [
        {
          "internalType": "address",
          "name": "spender",
          "type": "address"
        },
        {
          "internalType": "uint256",
          "name": "subtractedValue",
          "type": "uint256"
        }
      ],
      "name": "decreaseAllowance",
      "outputs": [
        {
          "internalType": "bool",
          "name": "",
          "type": "bool"
        }
      ],
      "stateMutability": "nonpayable",
      "type": "function"
    },
    {
      "inputs": [
        {
          "internalType": "address",
          "name": "spender",
          "type": "address"
        },
        {
          "internalType": "uint256",
          "name": "addedValue",
          "type": "uint256"
        }
      ],
      "name": "increaseAllowance",
      "outputs": [
        {
          "internalType": "bool",
          "name": "",
          "type": "bool"
        }
      ],
      "stateMutability": "nonpayable",
      "type": "function"
    },
    {
      "inputs": [],
      "name": "name",
      "outputs": [
        {
          "internalType": "string",
          "name": "",
          "type": "string"
        }
      ],
      "stateMutability": "view",
      "type": "function"
    },
    {
      "inputs": [],
      "name": "owner",
      "outputs": [
        {
          "internalType": "address",
          "name": "",
          "type": "address"
        }
      ],
      "stateMutability": "view",
      "type": "function"
    },
    {
      "inputs": [],
      "name": "renounceOwnership",
      "outputs": [],
      "stateMutability": "nonpayable",
      "type": "function"
    },
    {
      "inputs": [],
      "name": "symbol",
      "outputs": [
        {
          "internalType": "string",
          "name": "",
          "type": "string"
        }
      ],
      "stateMutability": "view",
      "type": "function"
    },
    {
      "inputs": [],
      "name": "totalSupply",
      "outputs": [
        {
          "internalType": "uint256",
          "name": "",
          "type": "uint256"
        }
      ],
      "stateMutability": "view",
      "type": "function"
    },
    {
      "inputs": [
        {
          "internalType": "address",
          "name": "recipient",
          "type": "address"
        },
        {
          "internalType": "uint256",
          "name": "amount",
          "type": "uint256"
        }
      ],
      "name": "transfer",
      "outputs": [
        {
          "internalType": "bool",
          "name": "",
          "type": "bool"
        }
      ],
      "stateMutability": "nonpayable",
      "type": "function"
    },
    {
      "inputs": [
        {
          "internalType": "address",
          "name": "sender",
          "type": "address"
        },
        {
          "internalType": "address",
          "name": "recipient",
          "type": "address"
        },
        {
          "internalType": "uint256",
          "name": "amount",
          "type": "uint256"
        }
      ],
      "name": "transferFrom",
      "outputs": [
        {
          "internalType": "bool",
          "name": "",
          "type": "bool"
        }
      ],
      "stateMutability": "nonpayable",
      "type": "function"
    },
    {
      "inputs": [
        {
          "internalType": "address",
          "name": "newOwner",
          "type": "address"
        }
      ],
      "name": "transferOwnership",
      "outputs": [],
      "stateMutability": "nonpayable",
      "type": "function"
    },
    {
      "inputs": [
        {
          "internalType": "uint256",
          "name": "amount",
          "type": "uint256"
        }
      ],
      "name": "swapAforB",
      "outputs": [
        {
          "internalType": "uint256",
          "name": "received",
          "type": "uint256"
        }
      ],
      "stateMutability": "nonpayable",
      "type": "function"
    },
    {
      "inputs": [
        {
          "internalType": "uint256",
          "name": "amount",
          "type": "uint256"
        }
      ],
      "name": "swapBforA",
      "outputs": [
        {
          "internalType": "uint256",
          "name": "received",
          "type": "uint256"
        }
      ],
      "stateMutability": "nonpayable",
      "type": "function"
    },
    {
      "inputs": [
        {
          "internalType": "uint256",
          "name": "amountA",
          "type": "uint256"
        }
      ],
      "name": "mintLiquidity",
      "outputs": [
        {
          "internalType": "uint256",
          "name": "minted",
          "type": "uint256"
        }
      ],
      "stateMutability": "nonpayable",
      "type": "function"
    },
    {
      "inputs": [
        {
          "internalType": "uint256",
          "name": "amount",
          "type": "uint256"
        }
      ],
      "name": "burnLiquidity",
      "outputs": [
        {
          "internalType": "uint256",
          "name": "totalA",
          "type": "uint256"
        },
        {
          "internalType": "uint256",
          "name": "totalB",
          "type": "uint256"
        }
      ],
      "stateMutability": "nonpayable",
      "type": "function"
    }
  ],
  "bytecode": "0x60806040523480156200001157600080fd5b50604051620038df380380620038df833981810160405260c08110156200003757600080fd5b81019080805160405193929190846401000000008211156200005857600080fd5b838201915060208201858111156200006f57600080fd5b82518660018202830111640100000000821117156200008d57600080fd5b8083526020830192505050908051906020019080838360005b83811015620000c3578082015181840152602081019050620000a6565b50505050905090810190601f168015620000f15780820380516001836020036101000a031916815260200191505b50604052602001805160405193929190846401000000008211156200011557600080fd5b838201915060208201858111156200012c57600080fd5b82518660018202830111640100000000821117156200014a57600080fd5b8083526020830192505050908051906020019080838360005b838110156200018057808201518184015260208101905062000163565b50505050905090810190601f168015620001ae5780820380516001836020036101000a031916815260200191505b5060405260200180519060200190929190805190602001909291908051906020019092919080519060200190929190505050858581818160039080519060200190620001fc92919062000706565b5080600490805190602001906200021592919062000706565b506012600560006101000a81548160ff021916908360ff160217905550505050506000620002486200042a60201b60201c565b905080600560016101000a81548173ffffffffffffffffffffffffffffffffffffffff021916908373ffffffffffffffffffffffffffffffffffffffff1602179055508073ffffffffffffffffffffffffffffffffffffffff16600073ffffffffffffffffffffffffffffffffffffffff167f8be0079c531659141344cd1fd0a4f28419497f9722a3daafe3b4186f6b6457e060405160405180910390a35083600760006101000a81548173ffffffffffffffffffffffffffffffffffffffff021916908373ffffffffffffffffffffffffffffffffffffffff16021790555082600860006101000a81548173ffffffffffffffffffffffffffffffffffffffff021916908373ffffffffffffffffffffffffffffffffffffffff1602179055506200038082826200043260201b620019dd1760201c565b600660006101000a8154816fffffffffffffffffffffffffffffffff0219169083600f0b6fffffffffffffffffffffffffffffffff160217905550620003e3600660009054906101000a9004600f0b600f0b620004a460201b62001a451760201c565b600660106101000a8154816fffffffffffffffffffffffffffffffff0219169083600f0b6fffffffffffffffffffffffffffffffff160217905550505050505050620007ac565b600033905090565b6000808214156200044257600080fd5b60006200045684846200053460201b60201c565b90506f7fffffffffffffffffffffffffffffff6fffffffffffffffffffffffffffffffff16816fffffffffffffffffffffffffffffffff1611156200049a57600080fd5b8091505092915050565b60008082600f0b1415620004b757600080fd5b600082600f0b70010000000000000000000000000000000081620004d757fe5b0590507fffffffffffffffffffffffffffffffff80000000000000000000000000000000600f0b81121580156200052157506f7fffffffffffffffffffffffffffffff600f0b8113155b6200052b57600080fd5b80915050919050565b6000808214156200054457600080fd5b600077ffffffffffffffffffffffffffffffffffffffffffffffff84116200057d5782604085901b816200057457fe5b049050620006de565b600060c09050600060c086901c90506401000000008110620005a757602081901c90506020820191505b620100008110620005c057601081901c90506010820191505b6101008110620005d857600881901c90506008820191505b60108110620005ef57600481901c90506004820191505b600481106200060657600281901c90506002820191505b6002811062000616576001820191505b600160bf830360018703901c018260ff0387901b816200063257fe5b0492506fffffffffffffffffffffffffffffffff8311156200065357600080fd5b6000608086901c8402905060006fffffffffffffffffffffffffffffffff871685029050600060c089901c9050600060408a901b90508281101562000699576001820391505b8281039050608084901b925082811015620006b5576001820391505b8281039050608084901c8214620006c857fe5b888181620006d257fe5b04870196505050505050505b6fffffffffffffffffffffffffffffffff811115620006fc57600080fd5b8091505092915050565b828054600181600116156101000203166002900490600052602060002090601f016020900481019282601f106200074957805160ff19168380011785556200077a565b828001600101855582156200077a579182015b82811115620007795782518255916020019190600101906200075c565b5b5090506200078991906200078d565b5090565b5b80821115620007a85760008160009055506001016200078e565b5090565b61312380620007bc6000396000f3fe608060405234801561001057600080fd5b50600436106101425760003560e01c8063715018a6116100b8578063a457c2d71161007c578063a457c2d7146105eb578063a9059cbb1461064f578063b29465f5146106b3578063dd62ed3e146106e7578063e4f1f70a1461075f578063f2fde38b146107a157610142565b8063715018a61461049a57806379cc6790146104a45780638014a7aa146104f25780638da5cb5b1461053457806395d89b411461056857610142565b8063265744f11161010a578063265744f114610312578063313ce5671461035b578063358333071461037c57806339509351146103b057806342966c681461041457806370a082311461044257610142565b806306fdde0314610147578063095ea7b3146101ca57806318160ddd1461022e578063234dcaa21461024c57806323b872dd1461028e575b600080fd5b61014f6107e5565b6040518080602001828103825283818151815260200191508051906020019080838360005b8381101561018f578082015181840152602081019050610174565b50505050905090810190601f1680156101bc5780820380516001836020036101000a031916815260200191505b509250505060405180910390f35b610216600480360360408110156101e057600080fd5b81019080803573ffffffffffffffffffffffffffffffffffffffff16906020019092919080359060200190929190505050610887565b60405180821515815260200191505060405180910390f35b6102366108a5565b6040518082815260200191505060405180910390f35b6102786004803603602081101561026257600080fd5b81019080803590602001909291905050506108af565b6040518082815260200191505060405180910390f35b6102fa600480360360608110156102a457600080fd5b81019080803573ffffffffffffffffffffffffffffffffffffffff169060200190929190803573ffffffffffffffffffffffffffffffffffffffff16906020019092919080359060200190929190505050610d45565b60405180821515815260200191505060405180910390f35b61033e6004803603602081101561032857600080fd5b8101908080359060200190929190505050610e1e565b604051808381526020018281526020019250505060405180910390f35b610363611134565b604051808260ff16815260200191505060405180910390f35b61038461114b565b604051808273ffffffffffffffffffffffffffffffffffffffff16815260200191505060405180910390f35b6103fc600480360360408110156103c657600080fd5b81019080803573ffffffffffffffffffffffffffffffffffffffff16906020019092919080359060200190929190505050611171565b60405180821515815260200191505060405180910390f35b6104406004803603602081101561042a57600080fd5b8101908080359060200190929190505050611224565b005b6104846004803603602081101561045857600080fd5b81019080803573ffffffffffffffffffffffffffffffffffffffff169060200190929190505050611238565b6040518082815260200191505060405180910390f35b6104a2611280565b005b6104f0600480360360408110156104ba57600080fd5b81019080803573ffffffffffffffffffffffffffffffffffffffff1690602001909291908035906020019092919050505061140b565b005b61051e6004803603602081101561050857600080fd5b810190808035906020019092919050505061146d565b6040518082815260200191505060405180910390f35b61053c6114eb565b604051808273ffffffffffffffffffffffffffffffffffffffff16815260200191505060405180910390f35b610570611515565b6040518080602001828103825283818151815260200191508051906020019080838360005b838110156105b0578082015181840152602081019050610595565b50505050905090810190601f1680156105dd5780820380516001836020036101000a031916815260200191505b509250505060405180910390f35b6106376004803603604081101561060157600080fd5b81019080803573ffffffffffffffffffffffffffffffffffffffff169060200190929190803590602001909291905050506115b7565b60405180821515815260200191505060405180910390f35b61069b6004803603604081101561066557600080fd5b81019080803573ffffffffffffffffffffffffffffffffffffffff16906020019092919080359060200190929190505050611684565b60405180821515815260200191505060405180910390f35b6106bb6116a2565b604051808273ffffffffffffffffffffffffffffffffffffffff16815260200191505060405180910390f35b610749600480360360408110156106fd57600080fd5b81019080803573ffffffffffffffffffffffffffffffffffffffff169060200190929190803573ffffffffffffffffffffffffffffffffffffffff1690602001909291905050506116c8565b6040518082815260200191505060405180910390f35b61078b6004803603602081101561077557600080fd5b810190808035906020019092919050505061174f565b6040518082815260200191505060405180910390f35b6107e3600480360360208110156107b757600080fd5b81019080803573ffffffffffffffffffffffffffffffffffffffff1690602001909291905050506117cd565b005b606060038054600181600116156101000203166002900480601f01602080910402602001604051908101604052809291908181526020018280546001816001161561010002031660029004801561087d5780601f106108525761010080835404028352916020019161087d565b820191906000526020600020905b81548152906001019060200180831161086057829003601f168201915b5050505050905090565b600061089b610894611ad1565b8484611ad9565b6001905092915050565b6000600254905090565b600081600760009054906101000a900473ffffffffffffffffffffffffffffffffffffffff1673ffffffffffffffffffffffffffffffffffffffff1663dd62ed3e33306040518363ffffffff1660e01b8152600401808373ffffffffffffffffffffffffffffffffffffffff1681526020018273ffffffffffffffffffffffffffffffffffffffff1681526020019250505060206040518083038186803b15801561095957600080fd5b505afa15801561096d573d6000803e3d6000fd5b505050506040513d602081101561098357600080fd5b81019080805190602001909291905050501015610a08576040517f08c379a00000000000000000000000000000000000000000000000000000000081526004018080602001828103825260168152602001807f496e73756666696369656e7420616c6c6f77616e63650000000000000000000081525060200191505060405180910390fd5b6000610a2f83600660109054906101000a9004600f0b600f0b611cd090919063ffffffff16565b905080600860009054906101000a900473ffffffffffffffffffffffffffffffffffffffff1673ffffffffffffffffffffffffffffffffffffffff1663dd62ed3e33306040518363ffffffff1660e01b8152600401808373ffffffffffffffffffffffffffffffffffffffff1681526020018273ffffffffffffffffffffffffffffffffffffffff1681526020019250505060206040518083038186803b158015610ad957600080fd5b505afa158015610aed573d6000803e3d6000fd5b505050506040513d6020811015610b0357600080fd5b81019080805190602001909291905050501015610b88576040517f08c379a00000000000000000000000000000000000000000000000000000000081526004018080602001828103825260168152602001807f496e73756666696369656e7420616c6c6f77616e63650000000000000000000081525060200191505060405180910390fd5b6000610b926108a5565b90506000811415610ba557839250610c96565b6000600760009054906101000a900473ffffffffffffffffffffffffffffffffffffffff1673ffffffffffffffffffffffffffffffffffffffff166370a08231306040518263ffffffff1660e01b8152600401808273ffffffffffffffffffffffffffffffffffffffff16815260200191505060206040518083038186803b158015610c3057600080fd5b505afa158015610c44573d6000803e3d6000fd5b505050506040513d6020811015610c5a57600080fd5b810190808051906020019092919050505090506000610c7983836119dd565b9050610c918682600f0b611cd090919063ffffffff16565b945050505b610ce5333086600760009054906101000a900473ffffffffffffffffffffffffffffffffffffffff1673ffffffffffffffffffffffffffffffffffffffff16611d8b909392919063ffffffff16565b610d34333084600860009054906101000a900473ffffffffffffffffffffffffffffffffffffffff1673ffffffffffffffffffffffffffffffffffffffff16611d8b909392919063ffffffff16565b610d3e3384611e4c565b5050919050565b6000610d52848484612013565b610e1384610d5e611ad1565b610e0e85604051806060016040528060288152602001612fe960289139600160008b73ffffffffffffffffffffffffffffffffffffffff1673ffffffffffffffffffffffffffffffffffffffff1681526020019081526020016000206000610dc4611ad1565b73ffffffffffffffffffffffffffffffffffffffff1673ffffffffffffffffffffffffffffffffffffffff168152602001908152602001600020546122d49092919063ffffffff16565b611ad9565b600190509392505050565b60008060008310158015610e3b5750610e3733306116c8565b8311155b610ead576040517f08c379a00000000000000000000000000000000000000000000000000000000081526004018080602001828103825260168152602001807f496e73756666696369656e7420616c6c6f77616e63650000000000000000000081525060200191505060405180910390fd5b6000600760009054906101000a900473ffffffffffffffffffffffffffffffffffffffff1673ffffffffffffffffffffffffffffffffffffffff166370a08231306040518263ffffffff1660e01b8152600401808273ffffffffffffffffffffffffffffffffffffffff16815260200191505060206040518083038186803b158015610f3857600080fd5b505afa158015610f4c573d6000803e3d6000fd5b505050506040513d6020811015610f6257600080fd5b810190808051906020019092919050505090506000600860009054906101000a900473ffffffffffffffffffffffffffffffffffffffff1673ffffffffffffffffffffffffffffffffffffffff166370a08231306040518263ffffffff1660e01b8152600401808273ffffffffffffffffffffffffffffffffffffffff16815260200191505060206040518083038186803b15801561100057600080fd5b505afa158015611014573d6000803e3d6000fd5b505050506040513d602081101561102a57600080fd5b8101908080519060200190929190505050905060006110476108a5565b9050600061105587836119dd565b905061106d8482600f0b611cd090919063ffffffff16565b95506110858382600f0b611cd090919063ffffffff16565b94506110d43387600760009054906101000a900473ffffffffffffffffffffffffffffffffffffffff1673ffffffffffffffffffffffffffffffffffffffff166123949092919063ffffffff16565b6111213386600860009054906101000a900473ffffffffffffffffffffffffffffffffffffffff1673ffffffffffffffffffffffffffffffffffffffff166123949092919063ffffffff16565b61112b338861140b565b50505050915091565b6000600560009054906101000a900460ff16905090565b600860009054906101000a900473ffffffffffffffffffffffffffffffffffffffff1681565b600061121a61117e611ad1565b84611215856001600061118f611ad1565b73ffffffffffffffffffffffffffffffffffffffff1673ffffffffffffffffffffffffffffffffffffffff16815260200190815260200160002060008973ffffffffffffffffffffffffffffffffffffffff1673ffffffffffffffffffffffffffffffffffffffff1681526020019081526020016000205461243690919063ffffffff16565b611ad9565b6001905092915050565b61123561122f611ad1565b826124be565b50565b60008060008373ffffffffffffffffffffffffffffffffffffffff1673ffffffffffffffffffffffffffffffffffffffff168152602001908152602001600020549050919050565b611288611ad1565b73ffffffffffffffffffffffffffffffffffffffff16600560019054906101000a900473ffffffffffffffffffffffffffffffffffffffff1673ffffffffffffffffffffffffffffffffffffffff161461134a576040517f08c379a00000000000000000000000000000000000000000000000000000000081526004018080602001828103825260208152602001807f4f776e61626c653a2063616c6c6572206973206e6f7420746865206f776e657281525060200191505060405180910390fd5b600073ffffffffffffffffffffffffffffffffffffffff16600560019054906101000a900473ffffffffffffffffffffffffffffffffffffffff1673ffffffffffffffffffffffffffffffffffffffff167f8be0079c531659141344cd1fd0a4f28419497f9722a3daafe3b4186f6b6457e060405160405180910390a36000600560016101000a81548173ffffffffffffffffffffffffffffffffffffffff021916908373ffffffffffffffffffffffffffffffffffffffff160217905550565b600061144a826040518060600160405280602481526020016130116024913961143b86611436611ad1565b6116c8565b6122d49092919063ffffffff16565b905061145e83611458611ad1565b83611ad9565b61146883836124be565b505050565b600061149482600660009054906101000a9004600f0b600f0b611cd090919063ffffffff16565b90506114e6600860009054906101000a900473ffffffffffffffffffffffffffffffffffffffff16600760009054906101000a900473ffffffffffffffffffffffffffffffffffffffff168484612682565b919050565b6000600560019054906101000a900473ffffffffffffffffffffffffffffffffffffffff16905090565b606060048054600181600116156101000203166002900480601f0160208091040260200160405190810160405280929190818152602001828054600181600116156101000203166002900480156115ad5780601f10611582576101008083540402835291602001916115ad565b820191906000526020600020905b81548152906001019060200180831161159057829003601f168201915b5050505050905090565b600061167a6115c4611ad1565b84611675856040518060600160405280602581526020016130c960259139600160006115ee611ad1565b73ffffffffffffffffffffffffffffffffffffffff1673ffffffffffffffffffffffffffffffffffffffff16815260200190815260200160002060008a73ffffffffffffffffffffffffffffffffffffffff1673ffffffffffffffffffffffffffffffffffffffff168152602001908152602001600020546122d49092919063ffffffff16565b611ad9565b6001905092915050565b6000611698611691611ad1565b8484612013565b6001905092915050565b600760009054906101000a900473ffffffffffffffffffffffffffffffffffffffff1681565b6000600160008473ffffffffffffffffffffffffffffffffffffffff1673ffffffffffffffffffffffffffffffffffffffff16815260200190815260200160002060008373ffffffffffffffffffffffffffffffffffffffff1673ffffffffffffffffffffffffffffffffffffffff16815260200190815260200160002054905092915050565b600061177682600660109054906101000a9004600f0b600f0b611cd090919063ffffffff16565b90506117c8600760009054906101000a900473ffffffffffffffffffffffffffffffffffffffff16600860009054906101000a900473ffffffffffffffffffffffffffffffffffffffff168484612682565b919050565b6117d5611ad1565b73ffffffffffffffffffffffffffffffffffffffff16600560019054906101000a900473ffffffffffffffffffffffffffffffffffffffff1673ffffffffffffffffffffffffffffffffffffffff1614611897576040517f08c379a00000000000000000000000000000000000000000000000000000000081526004018080602001828103825260208152602001807f4f776e61626c653a2063616c6c6572206973206e6f7420746865206f776e657281525060200191505060405180910390fd5b600073ffffffffffffffffffffffffffffffffffffffff168173ffffffffffffffffffffffffffffffffffffffff16141561191d576040517f08c379a0000000000000000000000000000000000000000000000000000000008152600401808060200182810382526026815260200180612f556026913960400191505060405180910390fd5b8073ffffffffffffffffffffffffffffffffffffffff16600560019054906101000a900473ffffffffffffffffffffffffffffffffffffffff1673ffffffffffffffffffffffffffffffffffffffff167f8be0079c531659141344cd1fd0a4f28419497f9722a3daafe3b4186f6b6457e060405160405180910390a380600560016101000a81548173ffffffffffffffffffffffffffffffffffffffff021916908373ffffffffffffffffffffffffffffffffffffffff16021790555050565b6000808214156119ec57600080fd5b60006119f88484612970565b90506f7fffffffffffffffffffffffffffffff6fffffffffffffffffffffffffffffffff16816fffffffffffffffffffffffffffffffff161115611a3b57600080fd5b8091505092915050565b60008082600f0b1415611a5757600080fd5b600082600f0b70010000000000000000000000000000000081611a7657fe5b0590507fffffffffffffffffffffffffffffffff80000000000000000000000000000000600f0b8112158015611abf57506f7fffffffffffffffffffffffffffffff600f0b8113155b611ac857600080fd5b80915050919050565b600033905090565b600073ffffffffffffffffffffffffffffffffffffffff168373ffffffffffffffffffffffffffffffffffffffff161415611b5f576040517f08c379a000000000000000000000000000000000000000000000000000000000815260040180806020018281038252602481526020018061307b6024913960400191505060405180910390fd5b600073ffffffffffffffffffffffffffffffffffffffff168273ffffffffffffffffffffffffffffffffffffffff161415611be5576040517f08c379a0000000000000000000000000000000000000000000000000000000008152600401808060200182810382526022815260200180612f7b6022913960400191505060405180910390fd5b80600160008573ffffffffffffffffffffffffffffffffffffffff1673ffffffffffffffffffffffffffffffffffffffff16815260200190815260200160002060008473ffffffffffffffffffffffffffffffffffffffff1673ffffffffffffffffffffffffffffffffffffffff168152602001908152602001600020819055508173ffffffffffffffffffffffffffffffffffffffff168373ffffffffffffffffffffffffffffffffffffffff167f8c5be1e5ebec7d5bd14f71427d1e84f3dd0314c0f7b2291e5b200ac8c7c3b925836040518082815260200191505060405180910390a3505050565b600080821415611ce35760009050611d85565b600083600f0b1215611cf457600080fd5b600060406fffffffffffffffffffffffffffffffff841685600f0b02901c90506000608084901c85600f0b02905077ffffffffffffffffffffffffffffffffffffffffffffffff811115611d4757600080fd5b604081901b9050817fffffffffffffffffffffffffffffffffffffffffffffffffffffffffffffffff03811115611d7d57600080fd5b818101925050505b92915050565b611e46846323b872dd60e01b858585604051602401808473ffffffffffffffffffffffffffffffffffffffff1681526020018373ffffffffffffffffffffffffffffffffffffffff1681526020018281526020019350505050604051602081830303815290604052907bffffffffffffffffffffffffffffffffffffffffffffffffffffffff19166020820180517bffffffffffffffffffffffffffffffffffffffffffffffffffffffff8381831617835250505050612b31565b50505050565b600073ffffffffffffffffffffffffffffffffffffffff168273ffffffffffffffffffffffffffffffffffffffff161415611eef576040517f08c379a000000000000000000000000000000000000000000000000000000000815260040180806020018281038252601f8152602001807f45524332303a206d696e7420746f20746865207a65726f20616464726573730081525060200191505060405180910390fd5b611efb60008383612c20565b611f108160025461243690919063ffffffff16565b600281905550611f67816000808573ffffffffffffffffffffffffffffffffffffffff1673ffffffffffffffffffffffffffffffffffffffff1681526020019081526020016000205461243690919063ffffffff16565b6000808473ffffffffffffffffffffffffffffffffffffffff1673ffffffffffffffffffffffffffffffffffffffff168152602001908152602001600020819055508173ffffffffffffffffffffffffffffffffffffffff16600073ffffffffffffffffffffffffffffffffffffffff167fddf252ad1be2c89b69c2b068fc378daa952ba7f163c4a11628f55a4df523b3ef836040518082815260200191505060405180910390a35050565b600073ffffffffffffffffffffffffffffffffffffffff168373ffffffffffffffffffffffffffffffffffffffff161415612099576040517f08c379a00000000000000000000000000000000000000000000000000000000081526004018080602001828103825260258152602001806130566025913960400191505060405180910390fd5b600073ffffffffffffffffffffffffffffffffffffffff168273ffffffffffffffffffffffffffffffffffffffff16141561211f576040517f08c379a0000000000000000000000000000000000000000000000000000000008152600401808060200182810382526023815260200180612f106023913960400191505060405180910390fd5b61212a838383612c20565b61219581604051806060016040528060268152602001612f9d602691396000808773ffffffffffffffffffffffffffffffffffffffff1673ffffffffffffffffffffffffffffffffffffffff168152602001908152602001600020546122d49092919063ffffffff16565b6000808573ffffffffffffffffffffffffffffffffffffffff1673ffffffffffffffffffffffffffffffffffffffff16815260200190815260200160002081905550612228816000808573ffffffffffffffffffffffffffffffffffffffff1673ffffffffffffffffffffffffffffffffffffffff1681526020019081526020016000205461243690919063ffffffff16565b6000808473ffffffffffffffffffffffffffffffffffffffff1673ffffffffffffffffffffffffffffffffffffffff168152602001908152602001600020819055508173ffffffffffffffffffffffffffffffffffffffff168373ffffffffffffffffffffffffffffffffffffffff167fddf252ad1be2c89b69c2b068fc378daa952ba7f163c4a11628f55a4df523b3ef836040518082815260200191505060405180910390a3505050565b6000838311158290612381576040517f08c379a00000000000000000000000000000000000000000000000000000000081526004018080602001828103825283818151815260200191508051906020019080838360005b8381101561234657808201518184015260208101905061232b565b50505050905090810190601f1680156123735780820380516001836020036101000a031916815260200191505b509250505060405180910390fd5b5060008385039050809150509392505050565b6124318363a9059cbb60e01b8484604051602401808373ffffffffffffffffffffffffffffffffffffffff16815260200182815260200192505050604051602081830303815290604052907bffffffffffffffffffffffffffffffffffffffffffffffffffffffff19166020820180517bffffffffffffffffffffffffffffffffffffffffffffffffffffffff8381831617835250505050612b31565b505050565b6000808284019050838110156124b4576040517f08c379a000000000000000000000000000000000000000000000000000000000815260040180806020018281038252601b8152602001807f536166654d6174683a206164646974696f6e206f766572666c6f77000000000081525060200191505060405180910390fd5b8091505092915050565b600073ffffffffffffffffffffffffffffffffffffffff168273ffffffffffffffffffffffffffffffffffffffff161415612544576040517f08c379a00000000000000000000000000000000000000000000000000000000081526004018080602001828103825260218152602001806130356021913960400191505060405180910390fd5b61255082600083612c20565b6125bb81604051806060016040528060228152602001612f33602291396000808673ffffffffffffffffffffffffffffffffffffffff1673ffffffffffffffffffffffffffffffffffffffff168152602001908152602001600020546122d49092919063ffffffff16565b6000808473ffffffffffffffffffffffffffffffffffffffff1673ffffffffffffffffffffffffffffffffffffffff1681526020019081526020016000208190555061261281600254612c2590919063ffffffff16565b600281905550600073ffffffffffffffffffffffffffffffffffffffff168273ffffffffffffffffffffffffffffffffffffffff167fddf252ad1be2c89b69c2b068fc378daa952ba7f163c4a11628f55a4df523b3ef836040518082815260200191505060405180910390a35050565b600760009054906101000a900473ffffffffffffffffffffffffffffffffffffffff1673ffffffffffffffffffffffffffffffffffffffff1663dd62ed3e33306040518363ffffffff1660e01b8152600401808373ffffffffffffffffffffffffffffffffffffffff1681526020018273ffffffffffffffffffffffffffffffffffffffff1681526020019250505060206040518083038186803b15801561272957600080fd5b505afa15801561273d573d6000803e3d6000fd5b505050506040513d602081101561275357600080fd5b81019080805190602001909291905050508211156127d9576040517f08c379a00000000000000000000000000000000000000000000000000000000081526004018080602001828103825260168152602001807f496e73756666696369656e7420616c6c6f77616e63650000000000000000000081525060200191505060405180910390fd5b600860009054906101000a900473ffffffffffffffffffffffffffffffffffffffff1673ffffffffffffffffffffffffffffffffffffffff166370a08231306040518263ffffffff1660e01b8152600401808273ffffffffffffffffffffffffffffffffffffffff16815260200191505060206040518083038186803b15801561286257600080fd5b505afa158015612876573d6000803e3d6000fd5b505050506040513d602081101561288c57600080fd5b8101908080519060200190929190505050811115612912576040517f08c379a00000000000000000000000000000000000000000000000000000000081526004018080602001828103825260148152602001807f496e73756666696369656e742062616c616e636500000000000000000000000081525060200191505060405180910390fd5b61293f3330848773ffffffffffffffffffffffffffffffffffffffff16611d8b909392919063ffffffff16565b61296a33828573ffffffffffffffffffffffffffffffffffffffff166123949092919063ffffffff16565b50505050565b60008082141561297f57600080fd5b600077ffffffffffffffffffffffffffffffffffffffffffffffff84116129b55782604085901b816129ad57fe5b049050612b0a565b600060c09050600060c086901c905064010000000081106129de57602081901c90506020820191505b6201000081106129f657601081901c90506010820191505b6101008110612a0d57600881901c90506008820191505b60108110612a2357600481901c90506004820191505b60048110612a3957600281901c90506002820191505b60028110612a48576001820191505b600160bf830360018703901c018260ff0387901b81612a6357fe5b0492506fffffffffffffffffffffffffffffffff831115612a8357600080fd5b6000608086901c8402905060006fffffffffffffffffffffffffffffffff871685029050600060c089901c9050600060408a901b905082811015612ac8576001820391505b8281039050608084901b925082811015612ae3576001820391505b8281039050608084901c8214612af557fe5b888181612afe57fe5b04870196505050505050505b6fffffffffffffffffffffffffffffffff811115612b2757600080fd5b8091505092915050565b6060612b93826040518060400160405280602081526020017f5361666545524332303a206c6f772d6c6576656c2063616c6c206661696c65648152508573ffffffffffffffffffffffffffffffffffffffff16612c6f9092919063ffffffff16565b9050600081511115612c1b57808060200190516020811015612bb457600080fd5b8101908080519060200190929190505050612c1a576040517f08c379a000000000000000000000000000000000000000000000000000000000815260040180806020018281038252602a81526020018061309f602a913960400191505060405180910390fd5b5b505050565b505050565b6000612c6783836040518060400160405280601e81526020017f536166654d6174683a207375627472616374696f6e206f766572666c6f7700008152506122d4565b905092915050565b6060612c7e8484600085612c87565b90509392505050565b606082471015612ce2576040517f08c379a0000000000000000000000000000000000000000000000000000000008152600401808060200182810382526026815260200180612fc36026913960400191505060405180910390fd5b612ceb85612e30565b612d5d576040517f08c379a000000000000000000000000000000000000000000000000000000000815260040180806020018281038252601d8152602001807f416464726573733a2063616c6c20746f206e6f6e2d636f6e747261637400000081525060200191505060405180910390fd5b600060608673ffffffffffffffffffffffffffffffffffffffff1685876040518082805190602001908083835b60208310612dad5780518252602082019150602081019050602083039250612d8a565b6001836020036101000a03801982511681845116808217855250505050505090500191505060006040518083038185875af1925050503d8060008114612e0f576040519150601f19603f3d011682016040523d82523d6000602084013e612e14565b606091505b5091509150612e24828286612e43565b92505050949350505050565b600080823b905060008111915050919050565b60608315612e5357829050612f08565b600083511115612e665782518084602001fd5b816040517f08c379a00000000000000000000000000000000000000000000000000000000081526004018080602001828103825283818151815260200191508051906020019080838360005b83811015612ecd578082015181840152602081019050612eb2565b50505050905090810190601f168015612efa5780820380516001836020036101000a031916815260200191505b509250505060405180910390fd5b939250505056fe45524332303a207472616e7366657220746f20746865207a65726f206164647265737345524332303a206275726e20616d6f756e7420657863656564732062616c616e63654f776e61626c653a206e6577206f776e657220697320746865207a65726f206164647265737345524332303a20617070726f766520746f20746865207a65726f206164647265737345524332303a207472616e7366657220616d6f756e7420657863656564732062616c616e6365416464726573733a20696e73756666696369656e742062616c616e636520666f722063616c6c45524332303a207472616e7366657220616d6f756e74206578636565647320616c6c6f77616e636545524332303a206275726e20616d6f756e74206578636565647320616c6c6f77616e636545524332303a206275726e2066726f6d20746865207a65726f206164647265737345524332303a207472616e736665722066726f6d20746865207a65726f206164647265737345524332303a20617070726f76652066726f6d20746865207a65726f20616464726573735361666545524332303a204552433230206f7065726174696f6e20646964206e6f74207375636365656445524332303a2064656372656173656420616c6c6f77616e63652062656c6f77207a65726fa26469706673582212203e29ed3ff08a295bb785fa9eec65044a758df3ad19d18109f83acaa29ca80e2d64736f6c634300060c0033",
  "immutableReferences": {},
  "source": "pragma solidity ^0.6;\n\n// SPDX-License-Identifier: UNLICENSED\n\nimport \"openzeppelin-solidity/contracts/access/Ownable.sol\";\nimport \"openzeppelin-solidity/contracts/math/SafeMath.sol\";\nimport \"openzeppelin-solidity/contracts/token/ERC20/SafeERC20.sol\";\nimport \"./libraries/ABDKMath64x64.sol\";\nimport \"./ExchangeERC20.sol\";\n\ncontract Exchange is ExchangeERC20, Ownable {\n    using SafeMath for uint;\n    using ABDKMath64x64 for int128;\n    using SafeERC20 for IERC20;\n\n    int128 private r; // A / B = r\n    int128 private r_inv; // r_inv = 1 / r\n    address public assetA;\n    address public assetB;\n\n    constructor(string memory _name, string memory _symbol, address _assetA, address _assetB, uint _a, uint _b) \n    ExchangeERC20(_name, _symbol) public {        \n        assetA = _assetA;\n        assetB = _assetB;\n        r = ABDKMath64x64.divu(_a, _b);\n        r_inv = r.inv();\n    }\n\n    function _swap(address _assetA, address _assetB, uint amountA, uint amountB) internal {\n        require(amountA <= IERC20(assetA).allowance(msg.sender, address(this)), \"Insufficient allowance\");\n        require(amountB <= IERC20(assetB).balanceOf(address(this)), \"Insufficient balance\");\n\n        IERC20(_assetA).safeTransferFrom(msg.sender, address(this), amountA);\n        IERC20(_assetB).safeTransfer(msg.sender, amountB);\n    }\n\n    function swapAforB(uint amount) public returns(uint received) {\n        received = r_inv.mulu(amount);\n        _swap(assetA, assetB, amount, received);\n    }\n\n    function swapBforA(uint amount) public returns(uint received) {\n        received = r.mulu(amount);\n        _swap(assetB, assetA, amount, received);\n    }\n\n    function mintLiquidity(uint256 amountA) public returns(uint minted) {\n        require(IERC20(assetA).allowance(msg.sender, address(this)) >= amountA, \"Insufficient allowance\");\n        \n        uint amountB = r_inv.mulu(amountA);\n        require(IERC20(assetB).allowance(msg.sender, address(this)) >= amountB, \"Insufficient allowance\");\n\n         \n        uint totalLiquidity = totalSupply();\n\n        if(totalLiquidity == 0) {\n            minted = amountA;\n        } else {\n            uint reserveA = IERC20(assetA).balanceOf(address(this));\n            int128 unitShare = ABDKMath64x64.divu(totalLiquidity, reserveA);\n            minted = unitShare.mulu(amountA);\n        }\n\n        IERC20(assetA).safeTransferFrom(msg.sender, address(this), amountA);\n        IERC20(assetB).safeTransferFrom(msg.sender, address(this), amountB);\n        _mint(msg.sender, minted);\n    }\n\n    function burnLiquidity(uint256 amount) public returns(uint totalA, uint totalB) {\n        require(amount >= 0 && amount <= allowance(msg.sender, address(this)), \"Insufficient allowance\");\n\n        uint reserveA = IERC20(assetA).balanceOf(address(this));\n        uint reserveB = IERC20(assetB).balanceOf(address(this));\n        uint totalLiquidity = totalSupply();\n        int128 unitShare = ABDKMath64x64.divu(amount, totalLiquidity);\n        \n        totalA = unitShare.mulu(reserveA);\n        totalB = unitShare.mulu(reserveB);\n\n        IERC20(assetA).safeTransfer(msg.sender, totalA);\n        IERC20(assetB).safeTransfer(msg.sender, totalB);\n\n        burnFrom(msg.sender, amount);\n    }\n}",
  "sourcePath": "/Users/antodp/develop/gitcoin/fuse-studio/contracts/exchange/contracts/Exchange.sol",
  "compiler": {
    "name": "solc",
    "version": "0.6.12+commit.27d51765.Emscripten.clang"
  },
  "schemaVersion": "3.2.5",
  "updatedAt": "2021-01-11T13:22:43.260Z",
  "devdoc": {
    "kind": "dev",
    "methods": {
      "allowance(address,address)": {
        "details": "See {IERC20-allowance}."
      },
      "approve(address,uint256)": {
        "details": "See {IERC20-approve}. Requirements: - `spender` cannot be the zero address."
      },
      "balanceOf(address)": {
        "details": "See {IERC20-balanceOf}."
      },
      "burn(uint256)": {
        "details": "Destroys `amount` tokens from the caller. See {ERC20-_burn}."
      },
      "burnFrom(address,uint256)": {
        "details": "Destroys `amount` tokens from `account`, deducting from the caller's allowance. See {ERC20-_burn} and {ERC20-allowance}. Requirements: - the caller must have allowance for ``accounts``'s tokens of at least `amount`."
      },
      "decimals()": {
        "details": "Returns the number of decimals used to get its user representation. For example, if `decimals` equals `2`, a balance of `505` tokens should be displayed to a user as `5,05` (`505 / 10 ** 2`). Tokens usually opt for a value of 18, imitating the relationship between Ether and Wei. This is the value {ERC20} uses, unless {_setupDecimals} is called. NOTE: This information is only used for _display_ purposes: it in no way affects any of the arithmetic of the contract, including {IERC20-balanceOf} and {IERC20-transfer}."
      },
      "decreaseAllowance(address,uint256)": {
        "details": "Atomically decreases the allowance granted to `spender` by the caller. This is an alternative to {approve} that can be used as a mitigation for problems described in {IERC20-approve}. Emits an {Approval} event indicating the updated allowance. Requirements: - `spender` cannot be the zero address. - `spender` must have allowance for the caller of at least `subtractedValue`."
      },
      "increaseAllowance(address,uint256)": {
        "details": "Atomically increases the allowance granted to `spender` by the caller. This is an alternative to {approve} that can be used as a mitigation for problems described in {IERC20-approve}. Emits an {Approval} event indicating the updated allowance. Requirements: - `spender` cannot be the zero address."
      },
      "name()": {
        "details": "Returns the name of the token."
      },
      "owner()": {
        "details": "Returns the address of the current owner."
      },
      "renounceOwnership()": {
        "details": "Leaves the contract without owner. It will not be possible to call `onlyOwner` functions anymore. Can only be called by the current owner. NOTE: Renouncing ownership will leave the contract without an owner, thereby removing any functionality that is only available to the owner."
      },
      "symbol()": {
        "details": "Returns the symbol of the token, usually a shorter version of the name."
      },
      "totalSupply()": {
        "details": "See {IERC20-totalSupply}."
      },
      "transfer(address,uint256)": {
        "details": "See {IERC20-transfer}. Requirements: - `recipient` cannot be the zero address. - the caller must have a balance of at least `amount`."
      },
      "transferFrom(address,address,uint256)": {
        "details": "See {IERC20-transferFrom}. Emits an {Approval} event indicating the updated allowance. This is not required by the EIP. See the note at the beginning of {ERC20}. Requirements: - `sender` and `recipient` cannot be the zero address. - `sender` must have a balance of at least `amount`. - the caller must have allowance for ``sender``'s tokens of at least `amount`."
      },
      "transferOwnership(address)": {
        "details": "Transfers ownership of the contract to a new account (`newOwner`). Can only be called by the current owner."
      }
    },
    "version": 1
  },
  "userdoc": {
    "kind": "user",
    "methods": {},
    "version": 1
  }
}